{
  "contractName": "TenderManagement",
  "abi": [
    {
      "inputs": [],
      "stateMutability": "nonpayable",
      "type": "constructor"
    },
    {
      "anonymous": false,
      "inputs": [
        {
          "indexed": false,
          "internalType": "string",
          "name": "tenderId",
          "type": "string"
        },
        {
          "indexed": false,
          "internalType": "address",
          "name": "bidder",
          "type": "address"
        },
        {
          "indexed": false,
          "internalType": "uint256",
          "name": "amount",
          "type": "uint256"
        },
        {
          "indexed": false,
          "internalType": "uint256",
          "name": "bidDate",
          "type": "uint256"
        },
        {
          "indexed": false,
          "internalType": "address",
          "name": "vendorId",
          "type": "address"
        }
      ],
      "name": "BidSubmitted",
      "type": "event"
    },
    {
      "anonymous": false,
      "inputs": [
        {
          "indexed": false,
          "internalType": "string",
          "name": "tenderId",
          "type": "string"
        },
        {
          "indexed": false,
          "internalType": "bool",
          "name": "approved",
          "type": "bool"
        },
        {
          "indexed": false,
          "internalType": "bool",
          "name": "isOpen",
          "type": "bool"
        },
        {
          "indexed": false,
          "internalType": "address",
          "name": "vendorId",
          "type": "address"
        }
      ],
      "name": "TenderApproved",
      "type": "event"
    },
    {
      "anonymous": false,
      "inputs": [
        {
          "indexed": false,
          "internalType": "string",
          "name": "tenderId",
          "type": "string"
        },
        {
          "indexed": false,
          "internalType": "string",
          "name": "tenderName",
          "type": "string"
        },
        {
          "indexed": false,
          "internalType": "string",
          "name": "tenderType",
          "type": "string"
        },
        {
          "indexed": false,
          "internalType": "bool",
          "name": "isOpen",
          "type": "bool"
        }
      ],
      "name": "TenderCreated",
      "type": "event"
    },
    {
      "inputs": [],
      "name": "admin",
      "outputs": [
        {
          "internalType": "address",
          "name": "",
          "type": "address"
        }
      ],
      "stateMutability": "view",
      "type": "function",
      "constant": true
    },
    {
      "inputs": [
        {
          "internalType": "string",
          "name": "",
          "type": "string"
        },
        {
          "internalType": "address",
          "name": "",
          "type": "address"
        }
      ],
      "name": "bids",
      "outputs": [
        {
          "internalType": "uint256",
          "name": "amount",
          "type": "uint256"
        },
        {
          "internalType": "uint256",
          "name": "bidDate",
          "type": "uint256"
        },
        {
          "internalType": "address",
          "name": "vendorId",
          "type": "address"
        }
      ],
      "stateMutability": "view",
      "type": "function",
      "constant": true
    },
    {
      "inputs": [],
      "name": "tenderCount",
      "outputs": [
        {
          "internalType": "uint256",
          "name": "",
          "type": "uint256"
        }
      ],
      "stateMutability": "view",
      "type": "function",
      "constant": true
    },
    {
      "inputs": [
        {
          "internalType": "uint256",
          "name": "",
          "type": "uint256"
        }
      ],
      "name": "tenderIds",
      "outputs": [
        {
          "internalType": "string",
          "name": "",
          "type": "string"
        }
      ],
      "stateMutability": "view",
      "type": "function",
      "constant": true
    },
    {
      "inputs": [
        {
          "internalType": "string",
          "name": "",
          "type": "string"
        }
      ],
      "name": "tenders",
      "outputs": [
        {
          "internalType": "string",
          "name": "tenderId",
          "type": "string"
        },
        {
          "internalType": "string",
          "name": "tenderName",
          "type": "string"
        },
        {
          "internalType": "string",
          "name": "tenderType",
          "type": "string"
        },
        {
          "internalType": "uint256",
          "name": "bidSubmissionDeadline",
          "type": "uint256"
        },
        {
          "internalType": "uint256",
          "name": "contractSignDeadline",
          "type": "uint256"
        },
        {
          "internalType": "uint256",
          "name": "estimatedCost",
          "type": "uint256"
        },
        {
          "internalType": "string",
          "name": "tenderDetails",
          "type": "string"
        },
        {
          "internalType": "bool",
          "name": "isOpen",
          "type": "bool"
        },
        {
          "internalType": "bool",
          "name": "approved",
          "type": "bool"
        }
      ],
      "stateMutability": "view",
      "type": "function",
      "constant": true
    },
    {
      "inputs": [
        {
          "internalType": "address",
          "name": "user",
          "type": "address"
        }
      ],
      "name": "isAdmin",
      "outputs": [
        {
          "internalType": "bool",
          "name": "",
          "type": "bool"
        }
      ],
      "stateMutability": "view",
      "type": "function",
      "constant": true
    },
    {
      "inputs": [
        {
          "internalType": "string",
          "name": "_tenderName",
          "type": "string"
        },
        {
          "internalType": "string",
          "name": "_tenderType",
          "type": "string"
        },
        {
          "internalType": "uint256",
          "name": "_bidSubmissionDeadline",
          "type": "uint256"
        },
        {
          "internalType": "uint256",
          "name": "_contractSignDeadline",
          "type": "uint256"
        },
        {
          "internalType": "uint256",
          "name": "_estimatedCost",
          "type": "uint256"
        },
        {
          "internalType": "string",
          "name": "_tenderDetails",
          "type": "string"
        }
      ],
      "name": "createTender",
      "outputs": [],
      "stateMutability": "nonpayable",
      "type": "function"
    },
    {
      "inputs": [],
      "name": "getAllTenderDetails",
      "outputs": [
        {
          "components": [
            {
              "internalType": "string",
              "name": "tenderId",
              "type": "string"
            },
            {
              "internalType": "string",
              "name": "tenderName",
              "type": "string"
            },
            {
              "internalType": "string",
              "name": "tenderType",
              "type": "string"
            },
            {
              "internalType": "uint256",
              "name": "bidSubmissionDeadline",
              "type": "uint256"
            },
            {
              "internalType": "uint256",
              "name": "contractSignDeadline",
              "type": "uint256"
            },
            {
              "internalType": "uint256",
              "name": "estimatedCost",
              "type": "uint256"
            },
            {
              "internalType": "string",
              "name": "tenderDetails",
              "type": "string"
            },
            {
              "internalType": "bool",
              "name": "isOpen",
              "type": "bool"
            },
            {
              "internalType": "bool",
              "name": "approved",
              "type": "bool"
            },
            {
              "internalType": "address[]",
              "name": "bidders",
              "type": "address[]"
            }
          ],
          "internalType": "struct TenderManagement.Tender[]",
          "name": "",
          "type": "tuple[]"
        }
      ],
      "stateMutability": "view",
      "type": "function",
      "constant": true
    },
    {
      "inputs": [],
      "name": "getAllTenderStatus",
      "outputs": [
        {
          "internalType": "bool[]",
          "name": "",
          "type": "bool[]"
        },
        {
          "internalType": "bool[]",
          "name": "",
          "type": "bool[]"
        }
      ],
      "stateMutability": "view",
      "type": "function",
      "constant": true
    },
    {
      "inputs": [
        {
          "internalType": "string",
          "name": "_tenderId",
          "type": "string"
        },
        {
          "internalType": "uint256",
          "name": "_amount",
          "type": "uint256"
        },
        {
          "internalType": "uint256",
          "name": "_currentDate",
          "type": "uint256"
        },
        {
          "internalType": "address",
          "name": "_vendorId",
          "type": "address"
        }
      ],
      "name": "submitBid",
      "outputs": [],
      "stateMutability": "nonpayable",
      "type": "function"
    },
    {
      "inputs": [
        {
          "internalType": "string",
          "name": "_tenderId",
          "type": "string"
        },
        {
          "internalType": "address",
          "name": "_vendorAddress",
          "type": "address"
        }
      ],
      "name": "isBidder",
      "outputs": [
        {
          "internalType": "bool",
          "name": "",
          "type": "bool"
        }
      ],
      "stateMutability": "view",
      "type": "function",
      "constant": true
    },
    {
      "inputs": [
        {
          "internalType": "uint256",
          "name": "_i",
          "type": "uint256"
        }
      ],
      "name": "uintToString",
      "outputs": [
        {
          "internalType": "string",
          "name": "",
          "type": "string"
        }
      ],
      "stateMutability": "pure",
      "type": "function",
      "constant": true
    },
    {
      "inputs": [
        {
          "internalType": "string",
          "name": "_tenderId",
          "type": "string"
        },
        {
          "internalType": "address",
          "name": "_vendorId",
          "type": "address"
        }
      ],
      "name": "approveTender",
      "outputs": [],
      "stateMutability": "nonpayable",
      "type": "function"
    }
  ],
  "bytecode": "0x60806040523480156200001157600080fd5b50600073ffffffffffffffffffffffffffffffffffffffff1673cd2dc4809bea02621630cfecb03f34d9a5fe7cfe73ffffffffffffffffffffffffffffffffffffffff160362000098576040517f08c379a00000000000000000000000000000000000000000000000000000000081526004016200008f906200017a565b60405180910390fd5b73cd2dc4809bea02621630cfecb03f34d9a5fe7cfe600360006101000a81548173ffffffffffffffffffffffffffffffffffffffff021916908373ffffffffffffffffffffffffffffffffffffffff1602179055506200019c565b600082825260208201905092915050565b7f41646d696e20616464726573732063616e6e6f74206265207a65726f2061646460008201527f7265737300000000000000000000000000000000000000000000000000000000602082015250565b600062000162602483620000f3565b91506200016f8262000104565b604082019050919050565b60006020820190508181036000830152620001958162000153565b9050919050565b61304180620001ac6000396000f3fe608060405234801561001057600080fd5b50600436106100cf5760003560e01c8063874226191161008c578063dff4460111610066578063dff446011461021b578063e17738871461024d578063e93956791461027d578063f851a440146102ad576100cf565b806387422619146101a8578063997b737f146101c4578063d79cfef0146101fc576100cf565b80631f058776146100d457806321583643146100f2578063223088e51461010e57806324d7806c1461012a57806339c776b61461015a5780633bcf1ec81461018a575b600080fd5b6100dc6102cb565b6040516100e991906119fd565b60405180910390f35b61010c60048036038101906101079190611aef565b6102d1565b005b61012860048036038101906101239190611b7b565b61054d565b005b610144600480360381019061013f9190611c6a565b610945565b6040516101519190611cb2565b60405180910390f35b610174600480360381019061016f9190611ccd565b61099f565b6040516101819190611d8a565b60405180910390f35b610192610a4b565b60405161019f919061208a565b60405180910390f35b6101c260048036038101906101bd91906120ac565b610e64565b005b6101de60048036038101906101d99190612264565b611201565b6040516101f3999897969594939291906122ad565b60405180910390f35b61020461149f565b604051610212929190612405565b60405180910390f35b6102356004803603810190610230919061243c565b61161a565b604051610244939291906124a7565b60405180910390f35b61026760048036038101906102629190611aef565b611687565b6040516102749190611cb2565b60405180910390f35b61029760048036038101906102929190611ccd565b61175d565b6040516102a49190611d8a565b60405180910390f35b6102b56118c0565b6040516102c291906124de565b60405180910390f35b60025481565b600360009054906101000a900473ffffffffffffffffffffffffffffffffffffffff1673ffffffffffffffffffffffffffffffffffffffff163373ffffffffffffffffffffffffffffffffffffffff1614610361576040517f08c379a00000000000000000000000000000000000000000000000000000000081526004016103589061256b565b60405180910390fd5b60008084846040516103749291906125bb565b90815260200160405180910390209050600081600001805461039590612603565b9050116103d7576040517f08c379a00000000000000000000000000000000000000000000000000000000081526004016103ce90612680565b60405180910390fd5b8060070160019054906101000a900460ff1615610429576040517f08c379a0000000000000000000000000000000000000000000000000000000008152600401610420906126ec565b60405180910390fd5b60006001858560405161043d9291906125bb565b908152602001604051809103902060008473ffffffffffffffffffffffffffffffffffffffff1673ffffffffffffffffffffffffffffffffffffffff16815260200190815260200160002060000154116104cc576040517f08c379a00000000000000000000000000000000000000000000000000000000081526004016104c390612758565b60405180910390fd5b60018160070160016101000a81548160ff02191690831515021790555060008160070160006101000a81548160ff0219169083151502179055507fa4d85faa13888fa5a7a64202d92bbd5eae9f7536571616bcb0880d491f5874128484600160008660405161053f9594939291906127a5565b60405180910390a150505050565b600360009054906101000a900473ffffffffffffffffffffffffffffffffffffffff1673ffffffffffffffffffffffffffffffffffffffff163373ffffffffffffffffffffffffffffffffffffffff16146105dd576040517f08c379a00000000000000000000000000000000000000000000000000000000081526004016105d49061256b565b60405180910390fd5b83851061061f576040517f08c379a00000000000000000000000000000000000000000000000000000000081526004016106169061283f565b60405180910390fd5b600260008154809291906106329061288e565b9190505550600061064460025461175d565b6040516020016106549190612953565b6040516020818303038152906040529050600086421090506040518061014001604052808381526020018c8c8080601f016020809104026020016040519081016040528093929190818152602001838380828437600081840152601f19601f8201169050808301925050505050505081526020018a8a8080601f016020809104026020016040519081016040528093929190818152602001838380828437600081840152601f19601f82011690508083019250505050505050815260200188815260200187815260200186815260200185858080601f016020809104026020016040519081016040528093929190818152602001838380828437600081840152601f19601f8201169050808301925050505050505081526020018215158152602001600015158152602001600067ffffffffffffffff81111561079a57610799612139565b5b6040519080825280602002602001820160405280156107c85781602001602082028036833780820191505090505b508152506000836040516107dc9190612975565b908152602001604051809103902060008201518160000190816107ff9190612b38565b5060208201518160010190816108159190612b38565b50604082015181600201908161082b9190612b38565b50606082015181600301556080820151816004015560a0820151816005015560c082015181600601908161085f9190612b38565b5060e08201518160070160006101000a81548160ff0219169083151502179055506101008201518160070160016101000a81548160ff0219169083151502179055506101208201518160080190805190602001906108be9291906118e6565b509050506004829080600181540180825580915050600190039060005260206000200160009091909190915090816108f69190612b38565b507f1b6325a4a8d6fd29ce3547cc18e622e75eb7bab7f230016411c705e3cc5c769b828c8c8c8c8660405161093096959493929190612c0a565b60405180910390a15050505050505050505050565b6000600360009054906101000a900473ffffffffffffffffffffffffffffffffffffffff1673ffffffffffffffffffffffffffffffffffffffff168273ffffffffffffffffffffffffffffffffffffffff16149050919050565b600481815481106109af57600080fd5b9060005260206000200160009150905080546109ca90612603565b80601f01602080910402602001604051908101604052809291908181526020018280546109f690612603565b8015610a435780601f10610a1857610100808354040283529160200191610a43565b820191906000526020600020905b815481529060010190602001808311610a2657829003601f168201915b505050505081565b6060600060048054905067ffffffffffffffff811115610a6e57610a6d612139565b5b604051908082528060200260200182016040528015610aa757816020015b610a94611970565b815260200190600190039081610a8c5790505b50905060005b600480549050811015610e5c57600060048281548110610ad057610acf612c68565b5b90600052602060002001604051610ae79190612d1a565b908152602001604051809103902060405180610140016040529081600082018054610b1190612603565b80601f0160208091040260200160405190810160405280929190818152602001828054610b3d90612603565b8015610b8a5780601f10610b5f57610100808354040283529160200191610b8a565b820191906000526020600020905b815481529060010190602001808311610b6d57829003601f168201915b50505050508152602001600182018054610ba390612603565b80601f0160208091040260200160405190810160405280929190818152602001828054610bcf90612603565b8015610c1c5780601f10610bf157610100808354040283529160200191610c1c565b820191906000526020600020905b815481529060010190602001808311610bff57829003601f168201915b50505050508152602001600282018054610c3590612603565b80601f0160208091040260200160405190810160405280929190818152602001828054610c6190612603565b8015610cae5780601f10610c8357610100808354040283529160200191610cae565b820191906000526020600020905b815481529060010190602001808311610c9157829003601f168201915b50505050508152602001600382015481526020016004820154815260200160058201548152602001600682018054610ce590612603565b80601f0160208091040260200160405190810160405280929190818152602001828054610d1190612603565b8015610d5e5780601f10610d3357610100808354040283529160200191610d5e565b820191906000526020600020905b815481529060010190602001808311610d4157829003601f168201915b505050505081526020016007820160009054906101000a900460ff161515151581526020016007820160019054906101000a900460ff1615151515815260200160088201805480602002602001604051908101604052809291908181526020018280548015610e2257602002820191906000526020600020905b8160009054906101000a900473ffffffffffffffffffffffffffffffffffffffff1673ffffffffffffffffffffffffffffffffffffffff1681526020019060010190808311610dd8575b505050505081525050828281518110610e3e57610e3d612c68565b5b60200260200101819052508080610e549061288e565b915050610aad565b508091505090565b6000808686604051610e779291906125bb565b908152602001604051809103902090506000816000018054610e9890612603565b905011610eda576040517f08c379a0000000000000000000000000000000000000000000000000000000008152600401610ed190612680565b60405180910390fd5b8060070160009054906101000a900460ff16610f2b576040517f08c379a0000000000000000000000000000000000000000000000000000000008152600401610f2290612d7d565b60405180910390fd5b8060070160019054906101000a900460ff1615610f7d576040517f08c379a0000000000000000000000000000000000000000000000000000000008152600401610f74906126ec565b60405180910390fd5b600060018787604051610f919291906125bb565b908152602001604051809103902060003373ffffffffffffffffffffffffffffffffffffffff1673ffffffffffffffffffffffffffffffffffffffff1681526020019081526020016000206000015414611020576040517f08c379a000000000000000000000000000000000000000000000000000000000815260040161101790612e0f565b60405180910390fd5b8060030154831115611067576040517f08c379a000000000000000000000000000000000000000000000000000000000815260040161105e90612ea1565b60405180910390fd5b60405180606001604052808581526020018481526020018373ffffffffffffffffffffffffffffffffffffffff16815250600187876040516110aa9291906125bb565b908152602001604051809103902060003373ffffffffffffffffffffffffffffffffffffffff1673ffffffffffffffffffffffffffffffffffffffff168152602001908152602001600020600082015181600001556020820151816001015560408201518160020160006101000a81548173ffffffffffffffffffffffffffffffffffffffff021916908373ffffffffffffffffffffffffffffffffffffffff16021790555090505080600801339080600181540180825580915050600190039060005260206000200160009091909190916101000a81548173ffffffffffffffffffffffffffffffffffffffff021916908373ffffffffffffffffffffffffffffffffffffffff1602179055507f1e1e4467d6a5f52099a3115ec4a77c018283f8adaeb9282a744163c2fda3cb098686338787876040516111f196959493929190612ec1565b60405180910390a1505050505050565b60008180516020810182018051848252602083016020850120818352809550505050505060009150905080600001805461123a90612603565b80601f016020809104026020016040519081016040528092919081815260200182805461126690612603565b80156112b35780601f10611288576101008083540402835291602001916112b3565b820191906000526020600020905b81548152906001019060200180831161129657829003601f168201915b5050505050908060010180546112c890612603565b80601f01602080910402602001604051908101604052809291908181526020018280546112f490612603565b80156113415780601f1061131657610100808354040283529160200191611341565b820191906000526020600020905b81548152906001019060200180831161132457829003601f168201915b50505050509080600201805461135690612603565b80601f016020809104026020016040519081016040528092919081815260200182805461138290612603565b80156113cf5780601f106113a4576101008083540402835291602001916113cf565b820191906000526020600020905b8154815290600101906020018083116113b257829003601f168201915b5050505050908060030154908060040154908060050154908060060180546113f690612603565b80601f016020809104026020016040519081016040528092919081815260200182805461142290612603565b801561146f5780601f106114445761010080835404028352916020019161146f565b820191906000526020600020905b81548152906001019060200180831161145257829003601f168201915b5050505050908060070160009054906101000a900460ff16908060070160019054906101000a900460ff16905089565b606080600060025467ffffffffffffffff8111156114c0576114bf612139565b5b6040519080825280602002602001820160405280156114ee5781602001602082028036833780820191505090505b509050600060025467ffffffffffffffff81111561150f5761150e612139565b5b60405190808252806020026020018201604052801561153d5781602001602082028036833780820191505090505b50905060005b60025481101561160d576000806004838154811061156457611563612c68565b5b9060005260206000200160405161157b9190612d1a565b908152602001604051809103902090508060070160009054906101000a900460ff168483815181106115b0576115af612c68565b5b6020026020010190151590811515815250508060070160019054906101000a900460ff168383815181106115e7576115e6612c68565b5b6020026020010190151590811515815250505080806116059061288e565b915050611543565b5081819350935050509091565b600182805160208101820180518482526020830160208501208183528095505050505050602052806000526040600020600091509150508060000154908060010154908060020160009054906101000a900473ffffffffffffffffffffffffffffffffffffffff16905083565b6000806000858560405161169c9291906125bb565b9081526020016040518091039020905060005b816008018054905081101561174f578373ffffffffffffffffffffffffffffffffffffffff168260080182815481106116eb576116ea612c68565b5b9060005260206000200160009054906101000a900473ffffffffffffffffffffffffffffffffffffffff1673ffffffffffffffffffffffffffffffffffffffff160361173c57600192505050611756565b80806117479061288e565b9150506116af565b5060009150505b9392505050565b6060600082036117a4576040518060400160405280600181526020017f300000000000000000000000000000000000000000000000000000000000000081525090506118bb565b600082905060005b600082146117d65780806117bf9061288e565b915050600a826117cf9190612f4c565b91506117ac565b60008167ffffffffffffffff8111156117f2576117f1612139565b5b6040519080825280601f01601f1916602001820160405280156118245781602001600182028036833780820191505090505b50905060008290505b600086146118b357600a866118429190612f7d565b603061184e9190612fae565b60f81b828261185c90612fe2565b925082815181106118705761186f612c68565b5b60200101907effffffffffffffffffffffffffffffffffffffffffffffffffffffffffffff1916908160001a905350600a866118ac9190612f4c565b955061182d565b819450505050505b919050565b600360009054906101000a900473ffffffffffffffffffffffffffffffffffffffff1681565b82805482825590600052602060002090810192821561195f579160200282015b8281111561195e5782518260006101000a81548173ffffffffffffffffffffffffffffffffffffffff021916908373ffffffffffffffffffffffffffffffffffffffff16021790555091602001919060010190611906565b5b50905061196c91906119c7565b5090565b60405180610140016040528060608152602001606081526020016060815260200160008152602001600081526020016000815260200160608152602001600015158152602001600015158152602001606081525090565b5b808211156119e05760008160009055506001016119c8565b5090565b6000819050919050565b6119f7816119e4565b82525050565b6000602082019050611a1260008301846119ee565b92915050565b6000604051905090565b600080fd5b600080fd5b600080fd5b600080fd5b600080fd5b60008083601f840112611a5157611a50611a2c565b5b8235905067ffffffffffffffff811115611a6e57611a6d611a31565b5b602083019150836001820283011115611a8a57611a89611a36565b5b9250929050565b600073ffffffffffffffffffffffffffffffffffffffff82169050919050565b6000611abc82611a91565b9050919050565b611acc81611ab1565b8114611ad757600080fd5b50565b600081359050611ae981611ac3565b92915050565b600080600060408486031215611b0857611b07611a22565b5b600084013567ffffffffffffffff811115611b2657611b25611a27565b5b611b3286828701611a3b565b93509350506020611b4586828701611ada565b9150509250925092565b611b58816119e4565b8114611b6357600080fd5b50565b600081359050611b7581611b4f565b92915050565b600080600080600080600080600060c08a8c031215611b9d57611b9c611a22565b5b60008a013567ffffffffffffffff811115611bbb57611bba611a27565b5b611bc78c828d01611a3b565b995099505060208a013567ffffffffffffffff811115611bea57611be9611a27565b5b611bf68c828d01611a3b565b97509750506040611c098c828d01611b66565b9550506060611c1a8c828d01611b66565b9450506080611c2b8c828d01611b66565b93505060a08a013567ffffffffffffffff811115611c4c57611c4b611a27565b5b611c588c828d01611a3b565b92509250509295985092959850929598565b600060208284031215611c8057611c7f611a22565b5b6000611c8e84828501611ada565b91505092915050565b60008115159050919050565b611cac81611c97565b82525050565b6000602082019050611cc76000830184611ca3565b92915050565b600060208284031215611ce357611ce2611a22565b5b6000611cf184828501611b66565b91505092915050565b600081519050919050565b600082825260208201905092915050565b60005b83811015611d34578082015181840152602081019050611d19565b60008484015250505050565b6000601f19601f8301169050919050565b6000611d5c82611cfa565b611d668185611d05565b9350611d76818560208601611d16565b611d7f81611d40565b840191505092915050565b60006020820190508181036000830152611da48184611d51565b905092915050565b600081519050919050565b600082825260208201905092915050565b6000819050602082019050919050565b600082825260208201905092915050565b6000611df482611cfa565b611dfe8185611dd8565b9350611e0e818560208601611d16565b611e1781611d40565b840191505092915050565b611e2b816119e4565b82525050565b611e3a81611c97565b82525050565b600081519050919050565b600082825260208201905092915050565b6000819050602082019050919050565b611e7581611ab1565b82525050565b6000611e878383611e6c565b60208301905092915050565b6000602082019050919050565b6000611eab82611e40565b611eb58185611e4b565b9350611ec083611e5c565b8060005b83811015611ef1578151611ed88882611e7b565b9750611ee383611e93565b925050600181019050611ec4565b5085935050505092915050565b6000610140830160008301518482036000860152611f1c8282611de9565b91505060208301518482036020860152611f368282611de9565b91505060408301518482036040860152611f508282611de9565b9150506060830151611f656060860182611e22565b506080830151611f786080860182611e22565b5060a0830151611f8b60a0860182611e22565b5060c083015184820360c0860152611fa38282611de9565b91505060e0830151611fb860e0860182611e31565b50610100830151611fcd610100860182611e31565b50610120830151848203610120860152611fe78282611ea0565b9150508091505092915050565b60006120008383611efe565b905092915050565b6000602082019050919050565b600061202082611dac565b61202a8185611db7565b93508360208202850161203c85611dc8565b8060005b8581101561207857848403895281516120598582611ff4565b945061206483612008565b925060208a01995050600181019050612040565b50829750879550505050505092915050565b600060208201905081810360008301526120a48184612015565b905092915050565b6000806000806000608086880312156120c8576120c7611a22565b5b600086013567ffffffffffffffff8111156120e6576120e5611a27565b5b6120f288828901611a3b565b9550955050602061210588828901611b66565b935050604061211688828901611b66565b925050606061212788828901611ada565b9150509295509295909350565b600080fd5b7f4e487b7100000000000000000000000000000000000000000000000000000000600052604160045260246000fd5b61217182611d40565b810181811067ffffffffffffffff821117156121905761218f612139565b5b80604052505050565b60006121a3611a18565b90506121af8282612168565b919050565b600067ffffffffffffffff8211156121cf576121ce612139565b5b6121d882611d40565b9050602081019050919050565b82818337600083830152505050565b6000612207612202846121b4565b612199565b90508281526020810184848401111561222357612222612134565b5b61222e8482856121e5565b509392505050565b600082601f83011261224b5761224a611a2c565b5b813561225b8482602086016121f4565b91505092915050565b60006020828403121561227a57612279611a22565b5b600082013567ffffffffffffffff81111561229857612297611a27565b5b6122a484828501612236565b91505092915050565b60006101208201905081810360008301526122c8818c611d51565b905081810360208301526122dc818b611d51565b905081810360408301526122f0818a611d51565b90506122ff60608301896119ee565b61230c60808301886119ee565b61231960a08301876119ee565b81810360c083015261232b8186611d51565b905061233a60e0830185611ca3565b612348610100830184611ca3565b9a9950505050505050505050565b600081519050919050565b600082825260208201905092915050565b6000819050602082019050919050565b600061238e8383611e31565b60208301905092915050565b6000602082019050919050565b60006123b282612356565b6123bc8185612361565b93506123c783612372565b8060005b838110156123f85781516123df8882612382565b97506123ea8361239a565b9250506001810190506123cb565b5085935050505092915050565b6000604082019050818103600083015261241f81856123a7565b9050818103602083015261243381846123a7565b90509392505050565b6000806040838503121561245357612452611a22565b5b600083013567ffffffffffffffff81111561247157612470611a27565b5b61247d85828601612236565b925050602061248e85828601611ada565b9150509250929050565b6124a181611ab1565b82525050565b60006060820190506124bc60008301866119ee565b6124c960208301856119ee565b6124d66040830184612498565b949350505050565b60006020820190506124f36000830184612498565b92915050565b7f4f6e6c792061646d696e2063616e20706572666f726d2074686973206163746960008201527f6f6e000000000000000000000000000000000000000000000000000000000000602082015250565b6000612555602283611d05565b9150612560826124f9565b604082019050919050565b6000602082019050818103600083015261258481612548565b9050919050565b600081905092915050565b60006125a2838561258b565b93506125af8385846121e5565b82840190509392505050565b60006125c8828486612596565b91508190509392505050565b7f4e487b7100000000000000000000000000000000000000000000000000000000600052602260045260246000fd5b6000600282049050600182168061261b57607f821691505b60208210810361262e5761262d6125d4565b5b50919050565b7f54656e646572206e6f7420666f756e6400000000000000000000000000000000600082015250565b600061266a601083611d05565b915061267582612634565b602082019050919050565b600060208201905081810360008301526126998161265d565b9050919050565b7f54656e64657220697320616c726561647920617070726f766564000000000000600082015250565b60006126d6601a83611d05565b91506126e1826126a0565b602082019050919050565b60006020820190508181036000830152612705816126c9565b9050919050565b7f56656e646f7220686173206e6f74207375626d69747465642061206269640000600082015250565b6000612742601e83611d05565b915061274d8261270c565b602082019050919050565b6000602082019050818103600083015261277181612735565b9050919050565b60006127848385611d05565b93506127918385846121e5565b61279a83611d40565b840190509392505050565b600060808201905081810360008301526127c0818789612778565b90506127cf6020830186611ca3565b6127dc6040830185611ca3565b6127e96060830184612498565b9695505050505050565b7f496e76616c696420646561646c696e6573000000000000000000000000000000600082015250565b6000612829601183611d05565b9150612834826127f3565b602082019050919050565b600060208201905081810360008301526128588161281c565b9050919050565b7f4e487b7100000000000000000000000000000000000000000000000000000000600052601160045260246000fd5b6000612899826119e4565b91507fffffffffffffffffffffffffffffffffffffffffffffffffffffffffffffffff82036128cb576128ca61285f565b5b600182019050919050565b7f5400000000000000000000000000000000000000000000000000000000000000600082015250565b600061290c60018361258b565b9150612917826128d6565b600182019050919050565b600061292d82611cfa565b612937818561258b565b9350612947818560208601611d16565b80840191505092915050565b600061295e826128ff565b915061296a8284612922565b915081905092915050565b60006129818284612922565b915081905092915050565b60008190508160005260206000209050919050565b60006020601f8301049050919050565b600082821b905092915050565b6000600883026129ee7fffffffffffffffffffffffffffffffffffffffffffffffffffffffffffffffff826129b1565b6129f886836129b1565b95508019841693508086168417925050509392505050565b6000819050919050565b6000612a35612a30612a2b846119e4565b612a10565b6119e4565b9050919050565b6000819050919050565b612a4f83612a1a565b612a63612a5b82612a3c565b8484546129be565b825550505050565b600090565b612a78612a6b565b612a83818484612a46565b505050565b5b81811015612aa757612a9c600082612a70565b600181019050612a89565b5050565b601f821115612aec57612abd8161298c565b612ac6846129a1565b81016020851015612ad5578190505b612ae9612ae1856129a1565b830182612a88565b50505b505050565b600082821c905092915050565b6000612b0f60001984600802612af1565b1980831691505092915050565b6000612b288383612afe565b9150826002028217905092915050565b612b4182611cfa565b67ffffffffffffffff811115612b5a57612b59612139565b5b612b648254612603565b612b6f828285612aab565b600060209050601f831160018114612ba25760008415612b90578287015190505b612b9a8582612b1c565b865550612c02565b601f198416612bb08661298c565b60005b82811015612bd857848901518255600182019150602085019450602081019050612bb3565b86831015612bf55784890151612bf1601f891682612afe565b8355505b6001600288020188555050505b505050505050565b60006080820190508181036000830152612c248189611d51565b90508181036020830152612c39818789612778565b90508181036040830152612c4e818587612778565b9050612c5d6060830184611ca3565b979650505050505050565b7f4e487b7100000000000000000000000000000000000000000000000000000000600052603260045260246000fd5b60008154612ca481612603565b612cae818661258b565b94506001821660008114612cc95760018114612cde57612d11565b60ff1983168652811515820286019350612d11565b612ce78561298c565b60005b83811015612d0957815481890152600182019150602081019050612cea565b838801955050505b50505092915050565b6000612d268284612c97565b915081905092915050565b7f54656e646572206973206e6f74206f70656e20666f722062696464696e670000600082015250565b6000612d67601e83611d05565b9150612d7282612d31565b602082019050919050565b60006020820190508181036000830152612d9681612d5a565b9050919050565b7f56656e646f722068617320616c7265616479207375626d69747465642061206260008201527f6964000000000000000000000000000000000000000000000000000000000000602082015250565b6000612df9602283611d05565b9150612e0482612d9d565b604082019050919050565b60006020820190508181036000830152612e2881612dec565b9050919050565b7f426964207375626d697373696f6e20646561646c696e6520686173207061737360008201527f6564000000000000000000000000000000000000000000000000000000000000602082015250565b6000612e8b602283611d05565b9150612e9682612e2f565b604082019050919050565b60006020820190508181036000830152612eba81612e7e565b9050919050565b600060a0820190508181036000830152612edc81888a612778565b9050612eeb6020830187612498565b612ef860408301866119ee565b612f0560608301856119ee565b612f126080830184612498565b979650505050505050565b7f4e487b7100000000000000000000000000000000000000000000000000000000600052601260045260246000fd5b6000612f57826119e4565b9150612f62836119e4565b925082612f7257612f71612f1d565b5b828204905092915050565b6000612f88826119e4565b9150612f93836119e4565b925082612fa357612fa2612f1d565b5b828206905092915050565b6000612fb9826119e4565b9150612fc4836119e4565b9250828201905080821115612fdc57612fdb61285f565b5b92915050565b6000612fed826119e4565b91506000820361300057612fff61285f565b5b60018203905091905056fea2646970667358221220d828343706845b89f8bb06b8f9bb96f82d49cd5ca289ef0c293f2308a10c470a64736f6c63430008130033",
  "immutableReferences": {},
  "source": "// SPDX-License-Identifier: MIT\npragma solidity ^0.8.19;\n\ncontract TenderManagement {\n    struct Bid {\n        uint256 amount;\n        uint256 bidDate;\n        address vendorId;\n    }\n\n    struct Tender {\n        string tenderId;\n        string tenderName;\n        string tenderType;\n        uint256 bidSubmissionDeadline;\n        uint256 contractSignDeadline;\n        uint256 estimatedCost;\n        string tenderDetails;\n        bool isOpen;\n        bool approved;\n        address[] bidders;\n    }\n\n    mapping(string => Tender) public tenders;\n    mapping(string => mapping(address => Bid)) public bids;\n    uint256 public tenderCount;\n    address public admin;\n    string[] public tenderIds;\n\n    event TenderCreated(string tenderId, string tenderName, string tenderType, bool isOpen);\n    event TenderApproved(string tenderId, bool approved, bool isOpen, address vendorId);\n    event BidSubmitted(string tenderId, address bidder, uint256 amount, uint256 bidDate, address vendorId);\n\n    // Hardcoded admin address (replace with a valid address)\n    address constant HARDCODED_ADMIN = 0xCd2dC4809bEa02621630CfeCB03f34D9A5Fe7Cfe;\n\n    constructor() {\n        require(HARDCODED_ADMIN != address(0), \"Admin address cannot be zero address\");\n        admin = HARDCODED_ADMIN;\n    }\n\n    modifier onlyAdmin() {\n        require(msg.sender == admin, \"Only admin can perform this action\");\n        _;\n    }\n    function isAdmin(address user) external view returns (bool) {\n    return user == admin;\n    }\n\n\n    function createTender(\n        string calldata _tenderName,\n        string calldata _tenderType,\n        uint256 _bidSubmissionDeadline,\n        uint256 _contractSignDeadline,\n        uint256 _estimatedCost,\n        string calldata _tenderDetails\n    ) external onlyAdmin {\n        require(_bidSubmissionDeadline < _contractSignDeadline, \"Invalid deadlines\");\n\n        tenderCount++;\n        string memory tenderId = string(abi.encodePacked(\"T\", uintToString(tenderCount)));\n        bool isOpen = block.timestamp < _bidSubmissionDeadline;\n\n        tenders[tenderId] = Tender({\n            tenderId: tenderId,\n            tenderName: _tenderName,\n            tenderType: _tenderType,\n            bidSubmissionDeadline: _bidSubmissionDeadline,\n            contractSignDeadline: _contractSignDeadline,\n            estimatedCost: _estimatedCost,\n            tenderDetails: _tenderDetails,\n            isOpen: isOpen,\n            approved: false,\n            bidders: new address[](0)\n        });\n\n        tenderIds.push(tenderId);\n        emit TenderCreated(tenderId, _tenderName, _tenderType, isOpen);\n    }\n\n    function getAllTenderDetails() external view returns (\n        Tender[] memory\n    ) {\n        Tender[] memory allTenders = new Tender[](tenderIds.length);\n\n        for (uint256 i = 0; i < tenderIds.length; i++) {\n            allTenders[i] = tenders[tenderIds[i]];\n        }\n\n        return allTenders;\n    }\n\n    function getAllTenderStatus() external view returns (\n        bool[] memory,\n        bool[] memory\n    ) {\n        bool[] memory isOpens = new bool[](tenderCount);\n        bool[] memory approved = new bool[](tenderCount);\n\n        for (uint256 i = 0; i < tenderCount; i++) {\n            Tender storage tender = tenders[tenderIds[i]];\n            isOpens[i] = tender.isOpen;\n            approved[i] = tender.approved;\n        }\n\n        return (isOpens, approved);\n    }\n\n    function submitBid(string calldata _tenderId, uint256 _amount, uint256 _currentDate, address _vendorId) external {\n        Tender storage tender = tenders[_tenderId];\n        require(bytes(tender.tenderId).length > 0, \"Tender not found\");\n        require(tender.isOpen, \"Tender is not open for bidding\");\n        require(!tender.approved, \"Tender is already approved\");\n        require(bids[_tenderId][msg.sender].amount == 0, \"Vendor has already submitted a bid\");\n        require(_currentDate <= tender.bidSubmissionDeadline, \"Bid submission deadline has passed\");\n\n        bids[_tenderId][msg.sender] = Bid({\n            amount: _amount,\n            bidDate: _currentDate,\n            vendorId: _vendorId\n        });\n\n        tender.bidders.push(msg.sender);\n\n        emit BidSubmitted(_tenderId, msg.sender, _amount, _currentDate, _vendorId);\n    }\n\n    function isBidder(string calldata _tenderId, address _vendorAddress) external view returns (bool) {\n        Tender storage tender = tenders[_tenderId];\n        for (uint256 i = 0; i < tender.bidders.length; i++) {\n            if (tender.bidders[i] == _vendorAddress) {\n                return true;\n            }\n        }\n        return false;\n    }\n\n    function uintToString(uint256 _i) public pure returns (string memory) {\n        if (_i == 0) {\n            return \"0\";\n        }\n        uint256 j = _i;\n        uint256 len = 0;\n        while (j != 0) {\n            len++;\n            j /= 10;\n        }\n        bytes memory bstr = new bytes(len);\n        uint256 k = len;\n        while (_i != 0) {\n            bstr[--k] = bytes1(uint8(48 + _i % 10));\n            _i /= 10;\n        }\n        return string(bstr);\n    }\n\n    function approveTender(string calldata _tenderId, address _vendorId) external onlyAdmin {\n    Tender storage tender = tenders[_tenderId];\n    require(bytes(tender.tenderId).length > 0, \"Tender not found\");\n    require(!tender.approved, \"Tender is already approved\");\n    require(bids[_tenderId][_vendorId].amount > 0, \"Vendor has not submitted a bid\");\n\n    tender.approved = true;\n    tender.isOpen = false;\n\n    emit TenderApproved(_tenderId, true, false, _vendorId);\n}\n}",
  "sourcePath": "D:\\Codes\\Projects\\tender-management-using-blockchain\\contracts\\TenderManagement.sol",
  "compiler": {
    "name": "solc",
    "version": "0.8.19+commit.7dd6d404.Emscripten.clang"
  },
  "schemaVersion": "3.4.16",
  "updatedAt": "2025-03-31T11:51:13.726Z",
  "networkType": "ethereum",
  "devdoc": {
    "kind": "dev",
    "methods": {},
    "version": 1
  },
  "userdoc": {
    "kind": "user",
    "methods": {},
    "version": 1
  }
}